{
	"data": {
		"bytecode": {
			"linkReferences": {},
			"object": "608060405260645f553480156012575f5ffd5b50610455806100205f395ff3fe608060405234801561000f575f5ffd5b5060043610610055575f3560e01c80632d75f8a61461005957806350f58e531461006357806358c7fa541461008157806389406ef81461009f578063d4cf51f4146100a9575b5f5ffd5b6100616100c5565b005b61006b610129565b6040516100789190610218565b60405180910390f35b61008961013b565b6040516100969190610249565b60405180910390f35b6100a7610140565b005b6100c360048036038101906100be9190610290565b6101a4565b005b60015f9054906101000a900460ff1615610114576040517f08c379a000000000000000000000000000000000000000000000000000000000815260040161010b9061033b565b60405180910390fd5b60025f546101229190610386565b5f81905550565b60015f9054906101000a900460ff1681565b5f5481565b60015f9054906101000a900460ff161561018f576040517f08c379a00000000000000000000000000000000000000000000000000000000081526004016101869061033b565b60405180910390fd5b60035f5461019d9190610386565b5f81905550565b8060015f6101000a81548160ff02191690831515021790555080156101fb577f16b3c1ca80948abc84187bb537e761239c3788a881d9839ed6c8a9354de3ae7c336040516101f29190610406565b60405180910390a15b50565b5f8115159050919050565b610212816101fe565b82525050565b5f60208201905061022b5f830184610209565b92915050565b5f819050919050565b61024381610231565b82525050565b5f60208201905061025c5f83018461023a565b92915050565b5f5ffd5b61026f816101fe565b8114610279575f5ffd5b50565b5f8135905061028a81610266565b92915050565b5f602082840312156102a5576102a4610262565b5b5f6102b28482850161027c565b91505092915050565b5f82825260208201905092915050565b7f4e6f207075656465732061666563746172206c612074616c6c6120707120656c5f8201527f20636f6e747261746f2065737461207061757361646f00000000000000000000602082015250565b5f6103256036836102bb565b9150610330826102cb565b604082019050919050565b5f6020820190508181035f83015261035281610319565b9050919050565b7f4e487b71000000000000000000000000000000000000000000000000000000005f52601160045260245ffd5b5f61039082610231565b915061039b83610231565b92508282026103a981610231565b915082820484148315176103c0576103bf610359565b5b5092915050565b5f73ffffffffffffffffffffffffffffffffffffffff82169050919050565b5f6103f0826103c7565b9050919050565b610400816103e6565b82525050565b5f6020820190506104195f8301846103f7565b9291505056fea2646970667358221220379980b5b9cbd2b4c0a4fce13ab64cb62e584d240ddca1236c9e9fd139466a6164736f6c634300081e0033",
			"opcodes": "PUSH1 0x80 PUSH1 0x40 MSTORE PUSH1 0x64 PUSH0 SSTORE CALLVALUE DUP1 ISZERO PUSH1 0x12 JUMPI PUSH0 PUSH0 REVERT JUMPDEST POP PUSH2 0x455 DUP1 PUSH2 0x20 PUSH0 CODECOPY PUSH0 RETURN INVALID PUSH1 0x80 PUSH1 0x40 MSTORE CALLVALUE DUP1 ISZERO PUSH2 0xF JUMPI PUSH0 PUSH0 REVERT JUMPDEST POP PUSH1 0x4 CALLDATASIZE LT PUSH2 0x55 JUMPI PUSH0 CALLDATALOAD PUSH1 0xE0 SHR DUP1 PUSH4 0x2D75F8A6 EQ PUSH2 0x59 JUMPI DUP1 PUSH4 0x50F58E53 EQ PUSH2 0x63 JUMPI DUP1 PUSH4 0x58C7FA54 EQ PUSH2 0x81 JUMPI DUP1 PUSH4 0x89406EF8 EQ PUSH2 0x9F JUMPI DUP1 PUSH4 0xD4CF51F4 EQ PUSH2 0xA9 JUMPI JUMPDEST PUSH0 PUSH0 REVERT JUMPDEST PUSH2 0x61 PUSH2 0xC5 JUMP JUMPDEST STOP JUMPDEST PUSH2 0x6B PUSH2 0x129 JUMP JUMPDEST PUSH1 0x40 MLOAD PUSH2 0x78 SWAP2 SWAP1 PUSH2 0x218 JUMP JUMPDEST PUSH1 0x40 MLOAD DUP1 SWAP2 SUB SWAP1 RETURN JUMPDEST PUSH2 0x89 PUSH2 0x13B JUMP JUMPDEST PUSH1 0x40 MLOAD PUSH2 0x96 SWAP2 SWAP1 PUSH2 0x249 JUMP JUMPDEST PUSH1 0x40 MLOAD DUP1 SWAP2 SUB SWAP1 RETURN JUMPDEST PUSH2 0xA7 PUSH2 0x140 JUMP JUMPDEST STOP JUMPDEST PUSH2 0xC3 PUSH1 0x4 DUP1 CALLDATASIZE SUB DUP2 ADD SWAP1 PUSH2 0xBE SWAP2 SWAP1 PUSH2 0x290 JUMP JUMPDEST PUSH2 0x1A4 JUMP JUMPDEST STOP JUMPDEST PUSH1 0x1 PUSH0 SWAP1 SLOAD SWAP1 PUSH2 0x100 EXP SWAP1 DIV PUSH1 0xFF AND ISZERO PUSH2 0x114 JUMPI PUSH1 0x40 MLOAD PUSH32 0x8C379A000000000000000000000000000000000000000000000000000000000 DUP2 MSTORE PUSH1 0x4 ADD PUSH2 0x10B SWAP1 PUSH2 0x33B JUMP JUMPDEST PUSH1 0x40 MLOAD DUP1 SWAP2 SUB SWAP1 REVERT JUMPDEST PUSH1 0x2 PUSH0 SLOAD PUSH2 0x122 SWAP2 SWAP1 PUSH2 0x386 JUMP JUMPDEST PUSH0 DUP2 SWAP1 SSTORE POP JUMP JUMPDEST PUSH1 0x1 PUSH0 SWAP1 SLOAD SWAP1 PUSH2 0x100 EXP SWAP1 DIV PUSH1 0xFF AND DUP2 JUMP JUMPDEST PUSH0 SLOAD DUP2 JUMP JUMPDEST PUSH1 0x1 PUSH0 SWAP1 SLOAD SWAP1 PUSH2 0x100 EXP SWAP1 DIV PUSH1 0xFF AND ISZERO PUSH2 0x18F JUMPI PUSH1 0x40 MLOAD PUSH32 0x8C379A000000000000000000000000000000000000000000000000000000000 DUP2 MSTORE PUSH1 0x4 ADD PUSH2 0x186 SWAP1 PUSH2 0x33B JUMP JUMPDEST PUSH1 0x40 MLOAD DUP1 SWAP2 SUB SWAP1 REVERT JUMPDEST PUSH1 0x3 PUSH0 SLOAD PUSH2 0x19D SWAP2 SWAP1 PUSH2 0x386 JUMP JUMPDEST PUSH0 DUP2 SWAP1 SSTORE POP JUMP JUMPDEST DUP1 PUSH1 0x1 PUSH0 PUSH2 0x100 EXP DUP2 SLOAD DUP2 PUSH1 0xFF MUL NOT AND SWAP1 DUP4 ISZERO ISZERO MUL OR SWAP1 SSTORE POP DUP1 ISZERO PUSH2 0x1FB JUMPI PUSH32 0x16B3C1CA80948ABC84187BB537E761239C3788A881D9839ED6C8A9354DE3AE7C CALLER PUSH1 0x40 MLOAD PUSH2 0x1F2 SWAP2 SWAP1 PUSH2 0x406 JUMP JUMPDEST PUSH1 0x40 MLOAD DUP1 SWAP2 SUB SWAP1 LOG1 JUMPDEST POP JUMP JUMPDEST PUSH0 DUP2 ISZERO ISZERO SWAP1 POP SWAP2 SWAP1 POP JUMP JUMPDEST PUSH2 0x212 DUP2 PUSH2 0x1FE JUMP JUMPDEST DUP3 MSTORE POP POP JUMP JUMPDEST PUSH0 PUSH1 0x20 DUP3 ADD SWAP1 POP PUSH2 0x22B PUSH0 DUP4 ADD DUP5 PUSH2 0x209 JUMP JUMPDEST SWAP3 SWAP2 POP POP JUMP JUMPDEST PUSH0 DUP2 SWAP1 POP SWAP2 SWAP1 POP JUMP JUMPDEST PUSH2 0x243 DUP2 PUSH2 0x231 JUMP JUMPDEST DUP3 MSTORE POP POP JUMP JUMPDEST PUSH0 PUSH1 0x20 DUP3 ADD SWAP1 POP PUSH2 0x25C PUSH0 DUP4 ADD DUP5 PUSH2 0x23A JUMP JUMPDEST SWAP3 SWAP2 POP POP JUMP JUMPDEST PUSH0 PUSH0 REVERT JUMPDEST PUSH2 0x26F DUP2 PUSH2 0x1FE JUMP JUMPDEST DUP2 EQ PUSH2 0x279 JUMPI PUSH0 PUSH0 REVERT JUMPDEST POP JUMP JUMPDEST PUSH0 DUP2 CALLDATALOAD SWAP1 POP PUSH2 0x28A DUP2 PUSH2 0x266 JUMP JUMPDEST SWAP3 SWAP2 POP POP JUMP JUMPDEST PUSH0 PUSH1 0x20 DUP3 DUP5 SUB SLT ISZERO PUSH2 0x2A5 JUMPI PUSH2 0x2A4 PUSH2 0x262 JUMP JUMPDEST JUMPDEST PUSH0 PUSH2 0x2B2 DUP5 DUP3 DUP6 ADD PUSH2 0x27C JUMP JUMPDEST SWAP2 POP POP SWAP3 SWAP2 POP POP JUMP JUMPDEST PUSH0 DUP3 DUP3 MSTORE PUSH1 0x20 DUP3 ADD SWAP1 POP SWAP3 SWAP2 POP POP JUMP JUMPDEST PUSH32 0x4E6F207075656465732061666563746172206C612074616C6C6120707120656C PUSH0 DUP3 ADD MSTORE PUSH32 0x20636F6E747261746F2065737461207061757361646F00000000000000000000 PUSH1 0x20 DUP3 ADD MSTORE POP JUMP JUMPDEST PUSH0 PUSH2 0x325 PUSH1 0x36 DUP4 PUSH2 0x2BB JUMP JUMPDEST SWAP2 POP PUSH2 0x330 DUP3 PUSH2 0x2CB JUMP JUMPDEST PUSH1 0x40 DUP3 ADD SWAP1 POP SWAP2 SWAP1 POP JUMP JUMPDEST PUSH0 PUSH1 0x20 DUP3 ADD SWAP1 POP DUP2 DUP2 SUB PUSH0 DUP4 ADD MSTORE PUSH2 0x352 DUP2 PUSH2 0x319 JUMP JUMPDEST SWAP1 POP SWAP2 SWAP1 POP JUMP JUMPDEST PUSH32 0x4E487B7100000000000000000000000000000000000000000000000000000000 PUSH0 MSTORE PUSH1 0x11 PUSH1 0x4 MSTORE PUSH1 0x24 PUSH0 REVERT JUMPDEST PUSH0 PUSH2 0x390 DUP3 PUSH2 0x231 JUMP JUMPDEST SWAP2 POP PUSH2 0x39B DUP4 PUSH2 0x231 JUMP JUMPDEST SWAP3 POP DUP3 DUP3 MUL PUSH2 0x3A9 DUP2 PUSH2 0x231 JUMP JUMPDEST SWAP2 POP DUP3 DUP3 DIV DUP5 EQ DUP4 ISZERO OR PUSH2 0x3C0 JUMPI PUSH2 0x3BF PUSH2 0x359 JUMP JUMPDEST JUMPDEST POP SWAP3 SWAP2 POP POP JUMP JUMPDEST PUSH0 PUSH20 0xFFFFFFFFFFFFFFFFFFFFFFFFFFFFFFFFFFFFFFFF DUP3 AND SWAP1 POP SWAP2 SWAP1 POP JUMP JUMPDEST PUSH0 PUSH2 0x3F0 DUP3 PUSH2 0x3C7 JUMP JUMPDEST SWAP1 POP SWAP2 SWAP1 POP JUMP JUMPDEST PUSH2 0x400 DUP2 PUSH2 0x3E6 JUMP JUMPDEST DUP3 MSTORE POP POP JUMP JUMPDEST PUSH0 PUSH1 0x20 DUP3 ADD SWAP1 POP PUSH2 0x419 PUSH0 DUP4 ADD DUP5 PUSH2 0x3F7 JUMP JUMPDEST SWAP3 SWAP2 POP POP JUMP INVALID LOG2 PUSH5 0x6970667358 0x22 SLT KECCAK256 CALLDATACOPY SWAP10 DUP1 0xB5 0xB9 0xCB 0xD2 0xB4 0xC0 LOG4 0xFC RJUMPI 0x3AB6 0x4C 0xB6 0x2E PC 0x4D 0x24 0xD 0xDC LOG1 0x23 PUSH13 0x9E9FD139466A6164736F6C6343 STOP ADDMOD 0x1E STOP CALLER "
		},
		"gasEstimates": {
			"creation": {
				"codeDepositCost": "221800",
				"executionCost": "22366",
				"totalCost": "244166"
			},
			"external": {
				"duplicarTalla()": "infinite",
				"pausado()": "2466",
				"pausar(bool)": "25994",
				"talla()": "2446",
				"triplicarTalla()": "infinite"
			}
		},
		"methodIdentifiers": {
			"duplicarTalla()": "2d75f8a6",
			"pausado()": "50f58e53",
			"pausar(bool)": "d4cf51f4",
			"talla()": "58c7fa54",
			"triplicarTalla()": "89406ef8"
		}
	},
	"abi": [
		{
			"anonymous": false,
			"inputs": [
				{
					"indexed": false,
					"internalType": "address",
					"name": "quien",
					"type": "address"
				}
			],
			"name": "ContratoPausado",
			"type": "event"
		},
		{
			"inputs": [],
			"name": "duplicarTalla",
			"outputs": [],
			"stateMutability": "nonpayable",
			"type": "function"
		},
		{
			"inputs": [],
			"name": "pausado",
			"outputs": [
				{
					"internalType": "bool",
					"name": "",
					"type": "bool"
				}
			],
			"stateMutability": "view",
			"type": "function"
		},
		{
			"inputs": [
				{
					"internalType": "bool",
					"name": "_b",
					"type": "bool"
				}
			],
			"name": "pausar",
			"outputs": [],
			"stateMutability": "nonpayable",
			"type": "function"
		},
		{
			"inputs": [],
			"name": "talla",
			"outputs": [
				{
					"internalType": "uint256",
					"name": "",
					"type": "uint256"
				}
			],
			"stateMutability": "view",
			"type": "function"
		},
		{
			"inputs": [],
			"name": "triplicarTalla",
			"outputs": [],
			"stateMutability": "nonpayable",
			"type": "function"
		}
	]
}